{
  "_format": "hh-sol-artifact-1",
  "contractName": "ChavaleriaNFT",
  "sourceName": "contracts/ChavaleriaNFT.sol",
  "abi": [
    {
      "inputs": [],
      "stateMutability": "payable",
      "type": "constructor"
    },
    {
      "anonymous": false,
      "inputs": [
        {
          "indexed": true,
          "internalType": "address",
          "name": "owner",
          "type": "address"
        },
        {
          "indexed": true,
          "internalType": "address",
          "name": "approved",
          "type": "address"
        },
        {
          "indexed": true,
          "internalType": "uint256",
          "name": "tokenId",
          "type": "uint256"
        }
      ],
      "name": "Approval",
      "type": "event"
    },
    {
      "anonymous": false,
      "inputs": [
        {
          "indexed": true,
          "internalType": "address",
          "name": "owner",
          "type": "address"
        },
        {
          "indexed": true,
          "internalType": "address",
          "name": "operator",
          "type": "address"
        },
        {
          "indexed": false,
          "internalType": "bool",
          "name": "approved",
          "type": "bool"
        }
      ],
      "name": "ApprovalForAll",
      "type": "event"
    },
    {
      "anonymous": false,
      "inputs": [
        {
          "indexed": true,
          "internalType": "address",
          "name": "previousOwner",
          "type": "address"
        },
        {
          "indexed": true,
          "internalType": "address",
          "name": "newOwner",
          "type": "address"
        }
      ],
      "name": "OwnershipTransferred",
      "type": "event"
    },
    {
      "anonymous": false,
      "inputs": [
        {
          "indexed": true,
          "internalType": "address",
          "name": "from",
          "type": "address"
        },
        {
          "indexed": true,
          "internalType": "address",
          "name": "to",
          "type": "address"
        },
        {
          "indexed": true,
          "internalType": "uint256",
          "name": "tokenId",
          "type": "uint256"
        }
      ],
      "name": "Transfer",
      "type": "event"
    },
    {
      "inputs": [
        {
          "internalType": "address",
          "name": "to",
          "type": "address"
        },
        {
          "internalType": "uint256",
          "name": "tokenId",
          "type": "uint256"
        }
      ],
      "name": "approve",
      "outputs": [],
      "stateMutability": "nonpayable",
      "type": "function"
    },
    {
      "inputs": [
        {
          "internalType": "address",
          "name": "owner",
          "type": "address"
        }
      ],
      "name": "balanceOf",
      "outputs": [
        {
          "internalType": "uint256",
          "name": "",
          "type": "uint256"
        }
      ],
      "stateMutability": "view",
      "type": "function"
    },
    {
      "inputs": [
        {
          "internalType": "uint256",
          "name": "tokenId",
          "type": "uint256"
        }
      ],
      "name": "getApproved",
      "outputs": [
        {
          "internalType": "address",
          "name": "",
          "type": "address"
        }
      ],
      "stateMutability": "view",
      "type": "function"
    },
    {
      "inputs": [
        {
          "internalType": "address",
          "name": "owner",
          "type": "address"
        },
        {
          "internalType": "address",
          "name": "operator",
          "type": "address"
        }
      ],
      "name": "isApprovedForAll",
      "outputs": [
        {
          "internalType": "bool",
          "name": "",
          "type": "bool"
        }
      ],
      "stateMutability": "view",
      "type": "function"
    },
    {
      "inputs": [
        {
          "internalType": "address",
          "name": "_to",
          "type": "address"
        },
        {
          "internalType": "uint256",
          "name": "_tokenId",
          "type": "uint256"
        },
        {
          "internalType": "string",
          "name": "_uri",
          "type": "string"
        }
      ],
      "name": "mint",
      "outputs": [],
      "stateMutability": "nonpayable",
      "type": "function"
    },
    {
      "inputs": [],
      "name": "name",
      "outputs": [
        {
          "internalType": "string",
          "name": "",
          "type": "string"
        }
      ],
      "stateMutability": "view",
      "type": "function"
    },
    {
      "inputs": [],
      "name": "owner",
      "outputs": [
        {
          "internalType": "address",
          "name": "",
          "type": "address"
        }
      ],
      "stateMutability": "view",
      "type": "function"
    },
    {
      "inputs": [
        {
          "internalType": "uint256",
          "name": "tokenId",
          "type": "uint256"
        }
      ],
      "name": "ownerOf",
      "outputs": [
        {
          "internalType": "address",
          "name": "",
          "type": "address"
        }
      ],
      "stateMutability": "view",
      "type": "function"
    },
    {
      "inputs": [],
      "name": "renounceOwnership",
      "outputs": [],
      "stateMutability": "nonpayable",
      "type": "function"
    },
    {
      "inputs": [
        {
          "internalType": "address",
          "name": "from",
          "type": "address"
        },
        {
          "internalType": "address",
          "name": "to",
          "type": "address"
        },
        {
          "internalType": "uint256",
          "name": "tokenId",
          "type": "uint256"
        }
      ],
      "name": "safeTransferFrom",
      "outputs": [],
      "stateMutability": "nonpayable",
      "type": "function"
    },
    {
      "inputs": [
        {
          "internalType": "address",
          "name": "from",
          "type": "address"
        },
        {
          "internalType": "address",
          "name": "to",
          "type": "address"
        },
        {
          "internalType": "uint256",
          "name": "tokenId",
          "type": "uint256"
        },
        {
          "internalType": "bytes",
          "name": "data",
          "type": "bytes"
        }
      ],
      "name": "safeTransferFrom",
      "outputs": [],
      "stateMutability": "nonpayable",
      "type": "function"
    },
    {
      "inputs": [
        {
          "internalType": "address",
          "name": "operator",
          "type": "address"
        },
        {
          "internalType": "bool",
          "name": "approved",
          "type": "bool"
        }
      ],
      "name": "setApprovalForAll",
      "outputs": [],
      "stateMutability": "nonpayable",
      "type": "function"
    },
    {
      "inputs": [
        {
          "internalType": "bytes4",
          "name": "interfaceId",
          "type": "bytes4"
        }
      ],
      "name": "supportsInterface",
      "outputs": [
        {
          "internalType": "bool",
          "name": "",
          "type": "bool"
        }
      ],
      "stateMutability": "view",
      "type": "function"
    },
    {
      "inputs": [],
      "name": "symbol",
      "outputs": [
        {
          "internalType": "string",
          "name": "",
          "type": "string"
        }
      ],
      "stateMutability": "view",
      "type": "function"
    },
    {
      "inputs": [
        {
          "internalType": "uint256",
          "name": "tokenId",
          "type": "uint256"
        }
      ],
      "name": "tokenURI",
      "outputs": [
        {
          "internalType": "string",
          "name": "",
          "type": "string"
        }
      ],
      "stateMutability": "view",
      "type": "function"
    },
    {
      "inputs": [
        {
          "internalType": "address",
          "name": "from",
          "type": "address"
        },
        {
          "internalType": "address",
          "name": "to",
          "type": "address"
        },
        {
          "internalType": "uint256",
          "name": "tokenId",
          "type": "uint256"
        }
      ],
      "name": "transferFrom",
      "outputs": [],
      "stateMutability": "nonpayable",
      "type": "function"
    },
    {
      "inputs": [
        {
          "internalType": "address",
          "name": "newOwner",
          "type": "address"
        }
      ],
      "name": "transferOwnership",
      "outputs": [],
      "stateMutability": "nonpayable",
      "type": "function"
    }
  ],
  "bytecode": "0x60806040526040518060400160405280600a81526020017f43686176616c65726961000000000000000000000000000000000000000000008152506040518060400160405280600281526020017f4348000000000000000000000000000000000000000000000000000000000000815250816000908162000081919062000404565b50806001908162000093919062000404565b505050620000b6620000aa620000bc60201b60201c565b620000c460201b60201c565b620004eb565b600033905090565b6000600760009054906101000a900473ffffffffffffffffffffffffffffffffffffffff16905081600760006101000a81548173ffffffffffffffffffffffffffffffffffffffff021916908373ffffffffffffffffffffffffffffffffffffffff1602179055508173ffffffffffffffffffffffffffffffffffffffff168173ffffffffffffffffffffffffffffffffffffffff167f8be0079c531659141344cd1fd0a4f28419497f9722a3daafe3b4186f6b6457e060405160405180910390a35050565b600081519050919050565b7f4e487b7100000000000000000000000000000000000000000000000000000000600052604160045260246000fd5b7f4e487b7100000000000000000000000000000000000000000000000000000000600052602260045260246000fd5b600060028204905060018216806200020c57607f821691505b602082108103620002225762000221620001c4565b5b50919050565b60008190508160005260206000209050919050565b60006020601f8301049050919050565b600082821b905092915050565b6000600883026200028c7fffffffffffffffffffffffffffffffffffffffffffffffffffffffffffffffff826200024d565b6200029886836200024d565b95508019841693508086168417925050509392505050565b6000819050919050565b6000819050919050565b6000620002e5620002df620002d984620002b0565b620002ba565b620002b0565b9050919050565b6000819050919050565b6200030183620002c4565b620003196200031082620002ec565b8484546200025a565b825550505050565b600090565b6200033062000321565b6200033d818484620002f6565b505050565b5b8181101562000365576200035960008262000326565b60018101905062000343565b5050565b601f821115620003b4576200037e8162000228565b62000389846200023d565b8101602085101562000399578190505b620003b1620003a8856200023d565b83018262000342565b50505b505050565b600082821c905092915050565b6000620003d960001984600802620003b9565b1980831691505092915050565b6000620003f48383620003c6565b9150826002028217905092915050565b6200040f826200018a565b67ffffffffffffffff8111156200042b576200042a62000195565b5b620004378254620001f3565b6200044482828562000369565b600060209050601f8311600181146200047c576000841562000467578287015190505b620004738582620003e6565b865550620004e3565b601f1984166200048c8662000228565b60005b82811015620004b6578489015182556001820191506020850194506020810190506200048f565b86831015620004d65784890151620004d2601f891682620003c6565b8355505b6001600288020188555050505b505050505050565b612f2c80620004fb6000396000f3fe608060405234801561001057600080fd5b506004361061010b5760003560e01c8063715018a6116100a2578063b88d4fde11610071578063b88d4fde146102a4578063c87b56dd146102c0578063d3fc9864146102f0578063e985e9c51461030c578063f2fde38b1461033c5761010b565b8063715018a6146102425780638da5cb5b1461024c57806395d89b411461026a578063a22cb465146102885761010b565b806323b872dd116100de57806323b872dd146101aa57806342842e0e146101c65780636352211e146101e257806370a08231146102125761010b565b806301ffc9a71461011057806306fdde0314610140578063081812fc1461015e578063095ea7b31461018e575b600080fd5b61012a60048036038101906101259190611caf565b610358565b6040516101379190611cf7565b60405180910390f35b61014861043a565b6040516101559190611da2565b60405180910390f35b61017860048036038101906101739190611dfa565b6104cc565b6040516101859190611e68565b60405180910390f35b6101a860048036038101906101a39190611eaf565b610512565b005b6101c460048036038101906101bf9190611eef565b610629565b005b6101e060048036038101906101db9190611eef565b610689565b005b6101fc60048036038101906101f79190611dfa565b6106a9565b6040516102099190611e68565b60405180910390f35b61022c60048036038101906102279190611f42565b61072f565b6040516102399190611f7e565b60405180910390f35b61024a6107e6565b005b6102546107fa565b6040516102619190611e68565b60405180910390f35b610272610824565b60405161027f9190611da2565b60405180910390f35b6102a2600480360381019061029d9190611fc5565b6108b6565b005b6102be60048036038101906102b9919061213a565b6108cc565b005b6102da60048036038101906102d59190611dfa565b61092e565b6040516102e79190611da2565b60405180910390f35b61030a6004803603810190610305919061221d565b610a40565b005b61032660048036038101906103219190612291565b610a9e565b6040516103339190611cf7565b60405180910390f35b61035660048036038101906103519190611f42565b610b32565b005b60007f80ac58cd000000000000000000000000000000000000000000000000000000007bffffffffffffffffffffffffffffffffffffffffffffffffffffffff1916827bffffffffffffffffffffffffffffffffffffffffffffffffffffffff1916148061042357507f5b5e139f000000000000000000000000000000000000000000000000000000007bffffffffffffffffffffffffffffffffffffffffffffffffffffffff1916827bffffffffffffffffffffffffffffffffffffffffffffffffffffffff1916145b80610433575061043282610bb5565b5b9050919050565b60606000805461044990612300565b80601f016020809104026020016040519081016040528092919081815260200182805461047590612300565b80156104c25780601f10610497576101008083540402835291602001916104c2565b820191906000526020600020905b8154815290600101906020018083116104a557829003601f168201915b5050505050905090565b60006104d782610c1f565b6004600083815260200190815260200160002060009054906101000a900473ffffffffffffffffffffffffffffffffffffffff169050919050565b600061051d826106a9565b90508073ffffffffffffffffffffffffffffffffffffffff168373ffffffffffffffffffffffffffffffffffffffff160361058d576040517f08c379a0000000000000000000000000000000000000000000000000000000008152600401610584906123a3565b60405180910390fd5b8073ffffffffffffffffffffffffffffffffffffffff166105ac610c6a565b73ffffffffffffffffffffffffffffffffffffffff1614806105db57506105da816105d5610c6a565b610a9e565b5b61061a576040517f08c379a000000000000000000000000000000000000000000000000000000000815260040161061190612435565b60405180910390fd5b6106248383610c72565b505050565b61063a610634610c6a565b82610d2b565b610679576040517f08c379a0000000000000000000000000000000000000000000000000000000008152600401610670906124c7565b60405180910390fd5b610684838383610dc0565b505050565b6106a4838383604051806020016040528060008152506108cc565b505050565b6000806106b5836110b9565b9050600073ffffffffffffffffffffffffffffffffffffffff168173ffffffffffffffffffffffffffffffffffffffff1603610726576040517f08c379a000000000000000000000000000000000000000000000000000000000815260040161071d90612533565b60405180910390fd5b80915050919050565b60008073ffffffffffffffffffffffffffffffffffffffff168273ffffffffffffffffffffffffffffffffffffffff160361079f576040517f08c379a0000000000000000000000000000000000000000000000000000000008152600401610796906125c5565b60405180910390fd5b600360008373ffffffffffffffffffffffffffffffffffffffff1673ffffffffffffffffffffffffffffffffffffffff168152602001908152602001600020549050919050565b6107ee6110f6565b6107f86000611174565b565b6000600760009054906101000a900473ffffffffffffffffffffffffffffffffffffffff16905090565b60606001805461083390612300565b80601f016020809104026020016040519081016040528092919081815260200182805461085f90612300565b80156108ac5780601f10610881576101008083540402835291602001916108ac565b820191906000526020600020905b81548152906001019060200180831161088f57829003601f168201915b5050505050905090565b6108c86108c1610c6a565b838361123a565b5050565b6108dd6108d7610c6a565b83610d2b565b61091c576040517f08c379a0000000000000000000000000000000000000000000000000000000008152600401610913906124c7565b60405180910390fd5b610928848484846113a6565b50505050565b606061093982610c1f565b600060066000848152602001908152602001600020805461095990612300565b80601f016020809104026020016040519081016040528092919081815260200182805461098590612300565b80156109d25780601f106109a7576101008083540402835291602001916109d2565b820191906000526020600020905b8154815290600101906020018083116109b557829003601f168201915b5050505050905060006109e3611402565b905060008151036109f8578192505050610a3b565b600082511115610a2d578082604051602001610a15929190612621565b60405160208183030381529060405292505050610a3b565b610a3684611419565b925050505b919050565b610a4a8484611481565b610a988383838080601f016020809104026020016040519081016040528093929190818152602001838380828437600081840152601f19601f8201169050808301925050505050505061169e565b50505050565b6000600560008473ffffffffffffffffffffffffffffffffffffffff1673ffffffffffffffffffffffffffffffffffffffff16815260200190815260200160002060008373ffffffffffffffffffffffffffffffffffffffff1673ffffffffffffffffffffffffffffffffffffffff16815260200190815260200160002060009054906101000a900460ff16905092915050565b610b3a6110f6565b600073ffffffffffffffffffffffffffffffffffffffff168173ffffffffffffffffffffffffffffffffffffffff1603610ba9576040517f08c379a0000000000000000000000000000000000000000000000000000000008152600401610ba0906126b7565b60405180910390fd5b610bb281611174565b50565b60007f01ffc9a7000000000000000000000000000000000000000000000000000000007bffffffffffffffffffffffffffffffffffffffffffffffffffffffff1916827bffffffffffffffffffffffffffffffffffffffffffffffffffffffff1916149050919050565b610c288161170b565b610c67576040517f08c379a0000000000000000000000000000000000000000000000000000000008152600401610c5e90612533565b60405180910390fd5b50565b600033905090565b816004600083815260200190815260200160002060006101000a81548173ffffffffffffffffffffffffffffffffffffffff021916908373ffffffffffffffffffffffffffffffffffffffff160217905550808273ffffffffffffffffffffffffffffffffffffffff16610ce5836106a9565b73ffffffffffffffffffffffffffffffffffffffff167f8c5be1e5ebec7d5bd14f71427d1e84f3dd0314c0f7b2291e5b200ac8c7c3b92560405160405180910390a45050565b600080610d37836106a9565b90508073ffffffffffffffffffffffffffffffffffffffff168473ffffffffffffffffffffffffffffffffffffffff161480610d795750610d788185610a9e565b5b80610db757508373ffffffffffffffffffffffffffffffffffffffff16610d9f846104cc565b73ffffffffffffffffffffffffffffffffffffffff16145b91505092915050565b8273ffffffffffffffffffffffffffffffffffffffff16610de0826106a9565b73ffffffffffffffffffffffffffffffffffffffff1614610e36576040517f08c379a0000000000000000000000000000000000000000000000000000000008152600401610e2d90612749565b60405180910390fd5b600073ffffffffffffffffffffffffffffffffffffffff168273ffffffffffffffffffffffffffffffffffffffff1603610ea5576040517f08c379a0000000000000000000000000000000000000000000000000000000008152600401610e9c906127db565b60405180910390fd5b610eb2838383600161174c565b8273ffffffffffffffffffffffffffffffffffffffff16610ed2826106a9565b73ffffffffffffffffffffffffffffffffffffffff1614610f28576040517f08c379a0000000000000000000000000000000000000000000000000000000008152600401610f1f90612749565b60405180910390fd5b6004600082815260200190815260200160002060006101000a81549073ffffffffffffffffffffffffffffffffffffffff02191690556001600360008573ffffffffffffffffffffffffffffffffffffffff1673ffffffffffffffffffffffffffffffffffffffff168152602001908152602001600020600082825403925050819055506001600360008473ffffffffffffffffffffffffffffffffffffffff1673ffffffffffffffffffffffffffffffffffffffff16815260200190815260200160002060008282540192505081905550816002600083815260200190815260200160002060006101000a81548173ffffffffffffffffffffffffffffffffffffffff021916908373ffffffffffffffffffffffffffffffffffffffff160217905550808273ffffffffffffffffffffffffffffffffffffffff168473ffffffffffffffffffffffffffffffffffffffff167fddf252ad1be2c89b69c2b068fc378daa952ba7f163c4a11628f55a4df523b3ef60405160405180910390a46110b48383836001611872565b505050565b60006002600083815260200190815260200160002060009054906101000a900473ffffffffffffffffffffffffffffffffffffffff169050919050565b6110fe610c6a565b73ffffffffffffffffffffffffffffffffffffffff1661111c6107fa565b73ffffffffffffffffffffffffffffffffffffffff1614611172576040517f08c379a000000000000000000000000000000000000000000000000000000000815260040161116990612847565b60405180910390fd5b565b6000600760009054906101000a900473ffffffffffffffffffffffffffffffffffffffff16905081600760006101000a81548173ffffffffffffffffffffffffffffffffffffffff021916908373ffffffffffffffffffffffffffffffffffffffff1602179055508173ffffffffffffffffffffffffffffffffffffffff168173ffffffffffffffffffffffffffffffffffffffff167f8be0079c531659141344cd1fd0a4f28419497f9722a3daafe3b4186f6b6457e060405160405180910390a35050565b8173ffffffffffffffffffffffffffffffffffffffff168373ffffffffffffffffffffffffffffffffffffffff16036112a8576040517f08c379a000000000000000000000000000000000000000000000000000000000815260040161129f906128b3565b60405180910390fd5b80600560008573ffffffffffffffffffffffffffffffffffffffff1673ffffffffffffffffffffffffffffffffffffffff16815260200190815260200160002060008473ffffffffffffffffffffffffffffffffffffffff1673ffffffffffffffffffffffffffffffffffffffff16815260200190815260200160002060006101000a81548160ff0219169083151502179055508173ffffffffffffffffffffffffffffffffffffffff168373ffffffffffffffffffffffffffffffffffffffff167f17307eab39ab6107e8899845ad3d59bd9653f200f220920489ca2b5937696c31836040516113999190611cf7565b60405180910390a3505050565b6113b1848484610dc0565b6113bd84848484611878565b6113fc576040517f08c379a00000000000000000000000000000000000000000000000000000000081526004016113f390612945565b60405180910390fd5b50505050565b606060405180602001604052806000815250905090565b606061142482610c1f565b600061142e611402565b9050600081511161144e5760405180602001604052806000815250611479565b80611458846119ff565b604051602001611469929190612621565b6040516020818303038152906040525b915050919050565b600073ffffffffffffffffffffffffffffffffffffffff168273ffffffffffffffffffffffffffffffffffffffff16036114f0576040517f08c379a00000000000000000000000000000000000000000000000000000000081526004016114e7906129b1565b60405180910390fd5b6114f98161170b565b15611539576040517f08c379a000000000000000000000000000000000000000000000000000000000815260040161153090612a1d565b60405180910390fd5b61154760008383600161174c565b6115508161170b565b15611590576040517f08c379a000000000000000000000000000000000000000000000000000000000815260040161158790612a1d565b60405180910390fd5b6001600360008473ffffffffffffffffffffffffffffffffffffffff1673ffffffffffffffffffffffffffffffffffffffff16815260200190815260200160002060008282540192505081905550816002600083815260200190815260200160002060006101000a81548173ffffffffffffffffffffffffffffffffffffffff021916908373ffffffffffffffffffffffffffffffffffffffff160217905550808273ffffffffffffffffffffffffffffffffffffffff16600073ffffffffffffffffffffffffffffffffffffffff167fddf252ad1be2c89b69c2b068fc378daa952ba7f163c4a11628f55a4df523b3ef60405160405180910390a461169a600083836001611872565b5050565b6116a78261170b565b6116e6576040517f08c379a00000000000000000000000000000000000000000000000000000000081526004016116dd90612aaf565b60405180910390fd5b806006600084815260200190815260200160002090816117069190612c7b565b505050565b60008073ffffffffffffffffffffffffffffffffffffffff1661172d836110b9565b73ffffffffffffffffffffffffffffffffffffffff1614159050919050565b600181111561186c57600073ffffffffffffffffffffffffffffffffffffffff168473ffffffffffffffffffffffffffffffffffffffff16146117e05780600360008673ffffffffffffffffffffffffffffffffffffffff1673ffffffffffffffffffffffffffffffffffffffff16815260200190815260200160002060008282546117d89190612d7c565b925050819055505b600073ffffffffffffffffffffffffffffffffffffffff168373ffffffffffffffffffffffffffffffffffffffff161461186b5780600360008573ffffffffffffffffffffffffffffffffffffffff1673ffffffffffffffffffffffffffffffffffffffff16815260200190815260200160002060008282546118639190612db0565b925050819055505b5b50505050565b50505050565b60006118998473ffffffffffffffffffffffffffffffffffffffff16611acd565b156119f2578373ffffffffffffffffffffffffffffffffffffffff1663150b7a026118c2610c6a565b8786866040518563ffffffff1660e01b81526004016118e49493929190612e39565b6020604051808303816000875af192505050801561192057506040513d601f19601f8201168201806040525081019061191d9190612e9a565b60015b6119a2573d8060008114611950576040519150601f19603f3d011682016040523d82523d6000602084013e611955565b606091505b50600081510361199a576040517f08c379a000000000000000000000000000000000000000000000000000000000815260040161199190612945565b60405180910390fd5b805181602001fd5b63150b7a0260e01b7bffffffffffffffffffffffffffffffffffffffffffffffffffffffff1916817bffffffffffffffffffffffffffffffffffffffffffffffffffffffff1916149150506119f7565b600190505b949350505050565b606060006001611a0e84611af0565b01905060008167ffffffffffffffff811115611a2d57611a2c61200f565b5b6040519080825280601f01601f191660200182016040528015611a5f5781602001600182028036833780820191505090505b509050600082602001820190505b600115611ac2578080600190039150507f3031323334353637383961626364656600000000000000000000000000000000600a86061a8153600a8581611ab657611ab5612ec7565b5b04945060008503611a6d575b819350505050919050565b6000808273ffffffffffffffffffffffffffffffffffffffff163b119050919050565b600080600090507a184f03e93ff9f4daa797ed6e38ed64bf6a1f0100000000000000008310611b4e577a184f03e93ff9f4daa797ed6e38ed64bf6a1f0100000000000000008381611b4457611b43612ec7565b5b0492506040810190505b6d04ee2d6d415b85acef81000000008310611b8b576d04ee2d6d415b85acef81000000008381611b8157611b80612ec7565b5b0492506020810190505b662386f26fc100008310611bba57662386f26fc100008381611bb057611baf612ec7565b5b0492506010810190505b6305f5e1008310611be3576305f5e1008381611bd957611bd8612ec7565b5b0492506008810190505b6127108310611c08576127108381611bfe57611bfd612ec7565b5b0492506004810190505b60648310611c2b5760648381611c2157611c20612ec7565b5b0492506002810190505b600a8310611c3a576001810190505b80915050919050565b6000604051905090565b600080fd5b600080fd5b60007fffffffff0000000000000000000000000000000000000000000000000000000082169050919050565b611c8c81611c57565b8114611c9757600080fd5b50565b600081359050611ca981611c83565b92915050565b600060208284031215611cc557611cc4611c4d565b5b6000611cd384828501611c9a565b91505092915050565b60008115159050919050565b611cf181611cdc565b82525050565b6000602082019050611d0c6000830184611ce8565b92915050565b600081519050919050565b600082825260208201905092915050565b60005b83811015611d4c578082015181840152602081019050611d31565b60008484015250505050565b6000601f19601f8301169050919050565b6000611d7482611d12565b611d7e8185611d1d565b9350611d8e818560208601611d2e565b611d9781611d58565b840191505092915050565b60006020820190508181036000830152611dbc8184611d69565b905092915050565b6000819050919050565b611dd781611dc4565b8114611de257600080fd5b50565b600081359050611df481611dce565b92915050565b600060208284031215611e1057611e0f611c4d565b5b6000611e1e84828501611de5565b91505092915050565b600073ffffffffffffffffffffffffffffffffffffffff82169050919050565b6000611e5282611e27565b9050919050565b611e6281611e47565b82525050565b6000602082019050611e7d6000830184611e59565b92915050565b611e8c81611e47565b8114611e9757600080fd5b50565b600081359050611ea981611e83565b92915050565b60008060408385031215611ec657611ec5611c4d565b5b6000611ed485828601611e9a565b9250506020611ee585828601611de5565b9150509250929050565b600080600060608486031215611f0857611f07611c4d565b5b6000611f1686828701611e9a565b9350506020611f2786828701611e9a565b9250506040611f3886828701611de5565b9150509250925092565b600060208284031215611f5857611f57611c4d565b5b6000611f6684828501611e9a565b91505092915050565b611f7881611dc4565b82525050565b6000602082019050611f936000830184611f6f565b92915050565b611fa281611cdc565b8114611fad57600080fd5b50565b600081359050611fbf81611f99565b92915050565b60008060408385031215611fdc57611fdb611c4d565b5b6000611fea85828601611e9a565b9250506020611ffb85828601611fb0565b9150509250929050565b600080fd5b600080fd5b7f4e487b7100000000000000000000000000000000000000000000000000000000600052604160045260246000fd5b61204782611d58565b810181811067ffffffffffffffff821117156120665761206561200f565b5b80604052505050565b6000612079611c43565b9050612085828261203e565b919050565b600067ffffffffffffffff8211156120a5576120a461200f565b5b6120ae82611d58565b9050602081019050919050565b82818337600083830152505050565b60006120dd6120d88461208a565b61206f565b9050828152602081018484840111156120f9576120f861200a565b5b6121048482856120bb565b509392505050565b600082601f83011261212157612120612005565b5b81356121318482602086016120ca565b91505092915050565b6000806000806080858703121561215457612153611c4d565b5b600061216287828801611e9a565b945050602061217387828801611e9a565b935050604061218487828801611de5565b925050606085013567ffffffffffffffff8111156121a5576121a4611c52565b5b6121b18782880161210c565b91505092959194509250565b600080fd5b600080fd5b60008083601f8401126121dd576121dc612005565b5b8235905067ffffffffffffffff8111156121fa576121f96121bd565b5b602083019150836001820283011115612216576122156121c2565b5b9250929050565b6000806000806060858703121561223757612236611c4d565b5b600061224587828801611e9a565b945050602061225687828801611de5565b935050604085013567ffffffffffffffff81111561227757612276611c52565b5b612283878288016121c7565b925092505092959194509250565b600080604083850312156122a8576122a7611c4d565b5b60006122b685828601611e9a565b92505060206122c785828601611e9a565b9150509250929050565b7f4e487b7100000000000000000000000000000000000000000000000000000000600052602260045260246000fd5b6000600282049050600182168061231857607f821691505b60208210810361232b5761232a6122d1565b5b50919050565b7f4552433732313a20617070726f76616c20746f2063757272656e74206f776e6560008201527f7200000000000000000000000000000000000000000000000000000000000000602082015250565b600061238d602183611d1d565b915061239882612331565b604082019050919050565b600060208201905081810360008301526123bc81612380565b9050919050565b7f4552433732313a20617070726f76652063616c6c6572206973206e6f7420746f60008201527f6b656e206f776e6572206f7220617070726f76656420666f7220616c6c000000602082015250565b600061241f603d83611d1d565b915061242a826123c3565b604082019050919050565b6000602082019050818103600083015261244e81612412565b9050919050565b7f4552433732313a2063616c6c6572206973206e6f7420746f6b656e206f776e6560008201527f72206f7220617070726f76656400000000000000000000000000000000000000602082015250565b60006124b1602d83611d1d565b91506124bc82612455565b604082019050919050565b600060208201905081810360008301526124e0816124a4565b9050919050565b7f4552433732313a20696e76616c696420746f6b656e2049440000000000000000600082015250565b600061251d601883611d1d565b9150612528826124e7565b602082019050919050565b6000602082019050818103600083015261254c81612510565b9050919050565b7f4552433732313a2061646472657373207a65726f206973206e6f74206120766160008201527f6c6964206f776e65720000000000000000000000000000000000000000000000602082015250565b60006125af602983611d1d565b91506125ba82612553565b604082019050919050565b600060208201905081810360008301526125de816125a2565b9050919050565b600081905092915050565b60006125fb82611d12565b61260581856125e5565b9350612615818560208601611d2e565b80840191505092915050565b600061262d82856125f0565b915061263982846125f0565b91508190509392505050565b7f4f776e61626c653a206e6577206f776e657220697320746865207a65726f206160008201527f6464726573730000000000000000000000000000000000000000000000000000602082015250565b60006126a1602683611d1d565b91506126ac82612645565b604082019050919050565b600060208201905081810360008301526126d081612694565b9050919050565b7f4552433732313a207472616e736665722066726f6d20696e636f72726563742060008201527f6f776e6572000000000000000000000000000000000000000000000000000000602082015250565b6000612733602583611d1d565b915061273e826126d7565b604082019050919050565b6000602082019050818103600083015261276281612726565b9050919050565b7f4552433732313a207472616e7366657220746f20746865207a65726f2061646460008201527f7265737300000000000000000000000000000000000000000000000000000000602082015250565b60006127c5602483611d1d565b91506127d082612769565b604082019050919050565b600060208201905081810360008301526127f4816127b8565b9050919050565b7f4f776e61626c653a2063616c6c6572206973206e6f7420746865206f776e6572600082015250565b6000612831602083611d1d565b915061283c826127fb565b602082019050919050565b6000602082019050818103600083015261286081612824565b9050919050565b7f4552433732313a20617070726f766520746f2063616c6c657200000000000000600082015250565b600061289d601983611d1d565b91506128a882612867565b602082019050919050565b600060208201905081810360008301526128cc81612890565b9050919050565b7f4552433732313a207472616e7366657220746f206e6f6e20455243373231526560008201527f63656976657220696d706c656d656e7465720000000000000000000000000000602082015250565b600061292f603283611d1d565b915061293a826128d3565b604082019050919050565b6000602082019050818103600083015261295e81612922565b9050919050565b7f4552433732313a206d696e7420746f20746865207a65726f2061646472657373600082015250565b600061299b602083611d1d565b91506129a682612965565b602082019050919050565b600060208201905081810360008301526129ca8161298e565b9050919050565b7f4552433732313a20746f6b656e20616c7265616479206d696e74656400000000600082015250565b6000612a07601c83611d1d565b9150612a12826129d1565b602082019050919050565b60006020820190508181036000830152612a36816129fa565b9050919050565b7f45524337323155524953746f726167653a2055524920736574206f66206e6f6e60008201527f6578697374656e7420746f6b656e000000000000000000000000000000000000602082015250565b6000612a99602e83611d1d565b9150612aa482612a3d565b604082019050919050565b60006020820190508181036000830152612ac881612a8c565b9050919050565b60008190508160005260206000209050919050565b60006020601f8301049050919050565b600082821b905092915050565b600060088302612b317fffffffffffffffffffffffffffffffffffffffffffffffffffffffffffffffff82612af4565b612b3b8683612af4565b95508019841693508086168417925050509392505050565b6000819050919050565b6000612b78612b73612b6e84611dc4565b612b53565b611dc4565b9050919050565b6000819050919050565b612b9283612b5d565b612ba6612b9e82612b7f565b848454612b01565b825550505050565b600090565b612bbb612bae565b612bc6818484612b89565b505050565b5b81811015612bea57612bdf600082612bb3565b600181019050612bcc565b5050565b601f821115612c2f57612c0081612acf565b612c0984612ae4565b81016020851015612c18578190505b612c2c612c2485612ae4565b830182612bcb565b50505b505050565b600082821c905092915050565b6000612c5260001984600802612c34565b1980831691505092915050565b6000612c6b8383612c41565b9150826002028217905092915050565b612c8482611d12565b67ffffffffffffffff811115612c9d57612c9c61200f565b5b612ca78254612300565b612cb2828285612bee565b600060209050601f831160018114612ce55760008415612cd3578287015190505b612cdd8582612c5f565b865550612d45565b601f198416612cf386612acf565b60005b82811015612d1b57848901518255600182019150602085019450602081019050612cf6565b86831015612d385784890151612d34601f891682612c41565b8355505b6001600288020188555050505b505050505050565b7f4e487b7100000000000000000000000000000000000000000000000000000000600052601160045260246000fd5b6000612d8782611dc4565b9150612d9283611dc4565b9250828203905081811115612daa57612da9612d4d565b5b92915050565b6000612dbb82611dc4565b9150612dc683611dc4565b9250828201905080821115612dde57612ddd612d4d565b5b92915050565b600081519050919050565b600082825260208201905092915050565b6000612e0b82612de4565b612e158185612def565b9350612e25818560208601611d2e565b612e2e81611d58565b840191505092915050565b6000608082019050612e4e6000830187611e59565b612e5b6020830186611e59565b612e686040830185611f6f565b8181036060830152612e7a8184612e00565b905095945050505050565b600081519050612e9481611c83565b92915050565b600060208284031215612eb057612eaf611c4d565b5b6000612ebe84828501612e85565b91505092915050565b7f4e487b7100000000000000000000000000000000000000000000000000000000600052601260045260246000fdfea264697066735822122045a02a5682df05b0565967134d47427176a12d7990a2700bccd753b71f62483464736f6c63430008110033",
  "linkReferences": {},
  "deployedLinkReferences": {}
}